{
  "contractName": "DaoLearning",
  "abi": [
    {
      "inputs": [],
      "stateMutability": "nonpayable",
      "type": "constructor"
    },
    {
      "inputs": [],
      "name": "getOwner",
      "outputs": [
        {
          "internalType": "address payable",
          "name": "",
          "type": "address"
        }
      ],
      "stateMutability": "view",
      "type": "function",
      "constant": true
    },
    {
      "inputs": [],
      "name": "mintTokens",
      "outputs": [],
      "stateMutability": "payable",
      "type": "function",
      "payable": true
    },
    {
      "inputs": [],
      "name": "checkBalance",
      "outputs": [
        {
          "internalType": "uint64",
          "name": "",
          "type": "uint64"
        }
      ],
      "stateMutability": "view",
      "type": "function",
      "constant": true
    },
    {
      "inputs": [],
      "name": "contractBalance",
      "outputs": [
        {
          "internalType": "uint256",
          "name": "",
          "type": "uint256"
        }
      ],
      "stateMutability": "view",
      "type": "function",
      "constant": true
    },
    {
      "inputs": [
        {
          "internalType": "uint64",
          "name": "amount",
          "type": "uint64"
        }
      ],
      "name": "withdraw",
      "outputs": [],
      "stateMutability": "nonpayable",
      "type": "function"
    }
  ],
  "bytecode": "0x608060405234801561001057600080fd5b50336000806101000a81548173ffffffffffffffffffffffffffffffffffffffff021916908373ffffffffffffffffffffffffffffffffffffffff160217905550610805806100606000396000f3fe60806040526004361061004a5760003560e01c8063750f0acc1461004f578063893d20e8146100785780638b7afe2e146100a3578063c71daccb146100ce578063eeb9635c146100f9575b600080fd5b34801561005b57600080fd5b5061007660048036038101906100719190610480565b610103565b005b34801561008457600080fd5b5061008d6102dc565b60405161009a91906104ee565b60405180910390f35b3480156100af57600080fd5b506100b8610305565b6040516100c59190610522565b60405180910390f35b3480156100da57600080fd5b506100e361030d565b6040516100f0919061054c565b60405180910390f35b61010161036b565b005b60008167ffffffffffffffff1611610150576040517f08c379a0000000000000000000000000000000000000000000000000000000008152600401610147906105ea565b60405180910390fd5b600160003373ffffffffffffffffffffffffffffffffffffffff1673ffffffffffffffffffffffffffffffffffffffff16815260200190815260200160002060000160009054906101000a900467ffffffffffffffff1667ffffffffffffffff168167ffffffffffffffff1611156101fd576040517f08c379a00000000000000000000000000000000000000000000000000000000081526004016101f49061067c565b60405180910390fd5b3373ffffffffffffffffffffffffffffffffffffffff166108fc8267ffffffffffffffff169081150290604051600060405180830381858888f1935050505015801561024d573d6000803e3d6000fd5b5080600160003373ffffffffffffffffffffffffffffffffffffffff1673ffffffffffffffffffffffffffffffffffffffff16815260200190815260200160002060000160008282829054906101000a900467ffffffffffffffff166102b391906106cb565b92506101000a81548167ffffffffffffffff021916908367ffffffffffffffff16021790555050565b60008060009054906101000a900473ffffffffffffffffffffffffffffffffffffffff16905090565b600047905090565b6000600160003373ffffffffffffffffffffffffffffffffffffffff1673ffffffffffffffffffffffffffffffffffffffff16815260200190815260200160002060000160009054906101000a900467ffffffffffffffff16905090565b600034116103ae576040517f08c379a00000000000000000000000000000000000000000000000000000000081526004016103a590610771565b60405180910390fd5b34600160003373ffffffffffffffffffffffffffffffffffffffff1673ffffffffffffffffffffffffffffffffffffffff16815260200190815260200160002060000160008282829054906101000a900467ffffffffffffffff166104139190610791565b92506101000a81548167ffffffffffffffff021916908367ffffffffffffffff160217905550565b600080fd5b600067ffffffffffffffff82169050919050565b61045d81610440565b811461046857600080fd5b50565b60008135905061047a81610454565b92915050565b6000602082840312156104965761049561043b565b5b60006104a48482850161046b565b91505092915050565b600073ffffffffffffffffffffffffffffffffffffffff82169050919050565b60006104d8826104ad565b9050919050565b6104e8816104cd565b82525050565b600060208201905061050360008301846104df565b92915050565b6000819050919050565b61051c81610509565b82525050565b60006020820190506105376000830184610513565b92915050565b61054681610440565b82525050565b6000602082019050610561600083018461053d565b92915050565b600082825260208201905092915050565b7f456e74657220612076616c696420616d6f756e74202830203c20616d6f756e7460008201527f203c3d2062616c616e6365290000000000000000000000000000000000000000602082015250565b60006105d4602c83610567565b91506105df82610578565b604082019050919050565b60006020820190508181036000830152610603816105c7565b9050919050565b7f596f7520646f206e6f742068617665207468652073756666696369656e74206660008201527f756e647320666f72207468697300000000000000000000000000000000000000602082015250565b6000610666602d83610567565b91506106718261060a565b604082019050919050565b6000602082019050818103600083015261069581610659565b9050919050565b7f4e487b7100000000000000000000000000000000000000000000000000000000600052601160045260246000fd5b60006106d682610440565b91506106e183610440565b9250828210156106f4576106f361069c565b5b828203905092915050565b7f596f75206d75737420617474617463682076616c756520746f2074686973207460008201527f72616e73616374696f6e21000000000000000000000000000000000000000000602082015250565b600061075b602b83610567565b9150610766826106ff565b604082019050919050565b6000602082019050818103600083015261078a8161074e565b9050919050565b600061079c82610440565b91506107a783610440565b92508267ffffffffffffffff038211156107c4576107c361069c565b5b82820190509291505056fea2646970667358221220a056702f13e2efe6712294a9b4929026a7a941387df04ba0eb2259837b0c772964736f6c634300080e0033",
  "immutableReferences": {},
  "source": "// SPDX-License-Identifier: UNLICENSED\r\n\r\npragma solidity >=0.7.0 <0.9.0;\r\n\r\n//Test contract representing a DAO, for learning purposes\r\n//Currently it is set up to be attacked by a Reentrancy attack\r\ncontract DaoLearning {\r\n\r\n    //Storage of the DAO contract's owner, and a list of members\r\n    //Possible future feature: store the owner as a normal member, rather\r\n    //  than an owner, for the same reasons that DAOs exist in the first place\r\n    address payable owner;\r\n    mapping(address => Member) members;\r\n\r\n    //Struct for a member, which is just a balance for now\r\n    struct Member {\r\n        uint64 balance;\r\n    }\r\n\r\n    //Modifier that requires that a function is passed a non-zero value\r\n    modifier hasValue() {\r\n        require(msg.value > 0, \"You must attatch value to this transaction!\");\r\n        _;\r\n    }\r\n\r\n    //Constructs the DAO contract, saving the owner\r\n    constructor() {\r\n        owner = payable(msg.sender);\r\n    }\r\n\r\n    //Returns the address of the DAO contract's owner\r\n    function getOwner() public view returns(address payable) {\r\n        return owner;\r\n    }\r\n\r\n    //Receives payment from other addresses, and credits them tokens\r\n    function mintTokens() public payable hasValue {\r\n        members[msg.sender].balance += uint64(msg.value);\r\n    }\r\n\r\n    //Returns the balance of the address that called the function\r\n    function checkBalance() public view returns(uint64) {\r\n        return members[msg.sender].balance;\r\n    }\r\n\r\n    //Returns the total balance controlled by this contract\r\n    function contractBalance() public view returns(uint256) {\r\n        return address(this).balance;\r\n    }\r\n\r\n    //Sends money back to an address, and debits their token balance\r\n    //Note: This is currently set up for a Reentrancy attack.  This is\r\n    //      a historically terrible way to do things.\r\n    function withdraw(uint64 amount) public {\r\n        //Require that the amount is between zero, and the address' balance\r\n        require(amount > 0, \"Enter a valid amount (0 < amount <= balance)\");\r\n        require(amount <= members[msg.sender].balance, \"You do not have the sufficient funds for this\");\r\n\r\n        //Send the address their money\r\n        payable(msg.sender).transfer(amount);\r\n\r\n        //Debit their token balance with the DAO\r\n        members[address(msg.sender)].balance -= amount;\r\n    }\r\n\r\n}\r\n",
  "sourcePath": "C:\\Users\\mbwil\\Documents\\Programming\\Solidity\\Truffle\\FirstProject\\contracts\\DaoLearning.sol",
  "compiler": {
    "name": "solc",
    "version": "0.8.14+commit.80d49f37.Emscripten.clang"
  },
  "schemaVersion": "3.4.7",
  "updatedAt": "2022-06-23T02:38:35.849Z",
  "networkType": "ethereum",
  "devdoc": {
    "kind": "dev",
    "methods": {},
    "version": 1
  },
  "userdoc": {
    "kind": "user",
    "methods": {},
    "version": 1
  }
}